:100000000C9434000C943E000C943E000C943E0082
:100010000C943E000C943E000C943E000C943E0068
:100020000C943E000C943E000C943E000C943E0058
:100030000C943E000C943E000C943E000C943E0048
:100040000C943E000C943E000C943E000C943E0038
:100050000C943E000C943E000C943E000C943E0028
:100060000C943E000C943E0011241FBECFEFD8E04C
:10007000DEBFCDBF0E9462000C9470000C940000A3
:100080008CE090E09093C5008093C400E1ECF0E038
:10009000808188608083808180618083E2ECF0E0F1
:1000A00080818460808308959091C00095FFFCCF8B
:1000B0008093C60008958091C00087FFFCCF809197
:1000C000C60008950E944000CFE30E945B0090EDBF
:1000D000980F9A3008F4C82F8C2F0E945400F5CF47
:0400E000F894FFCFC2
:00000001FF
